:020000041A00E0
:10000000008000103507001A7901001A7B01001AE0
:100010007D01001A7F01001A8101001A5A71FF53F5
:100020000000000000000000000000008301001A32
:100030008501001A000000008701001AFD15001A52
:10004000BB01001ABB01001ABB01001A000000002E
:10005000BB01001ABB01001ABB01001ABB01001A48
:10006000A516001ABB01001ABB01001ABB01001A39
:10007000BB01001ABB01001ABB01001ABB01001A28
:10008000BB01001ABB01001ABB01001ABB01001A18
:10009000BB01001ABB01001ABB01001ABB01001A08
:1000A000BB01001ABB01001ABB01001ABB01001AF8
:1000B000BB01001ABB01001ABB01001ABB01001AE8
:1000C000BB01001ABB01001ABB01001ABB01001AD8
:1000D000BB01001ABB01001ABB01001ABB01001AC8
:1000E000BB01001ABB01001ABB01001ABB01001AB8
:1000F00000000000BB01001ABB01001ABB01001A7E
:1001000000000000BB01001ABB01001ABB01001A6D
:10011000BB01001A4026001A00000010A4000000D5
:100120004026001A00000810000000004026001AB7
:1001300000000020000000004026001A008000207F
:10014000000000004026001A00C00020000000004F
:10015000A800001048000000000008100000000087
:1001600000000020000000000080002000000000CF
:1001700000C0002000000000FEE7FEE7FEE7FEE70B
:10018000FEE7FEE7FEE7FEE7FEE7002393420AD222
:1001900010B450F8044B41F8044B04339342F8D3A5
:1001A0005DF8044B7047704700238B4204D2002255
:1001B00040F8042B0433F8E77047FEE7FFFFFFFF2A
:1001C000FFFFFFFFFFFFFFFFFFFFFFFFFFFFFFFF3F
:1001D000FFFFFFFFFFFFFFFFFFFFFFFFFFFFFFFF2F
:1001E000FFFFFFFFFFFFFFFFFFFFFFFFFFFFFFFF1F
:1001F000FFFFFFFFFFFFFFFFFFFFFFFFFFFFFFFF0F
:10020000FFFFFFFFFFFFFFFFFFFFFFFFFFFFFFFFFE
:10021000FFFFFFFFFFFFFFFFFFFFFFFFFFFFFFFFEE
:10022000FFFFFFFFFFFFFFFFFFFFFFFFFFFFFFFFDE
:10023000FFFFFFFFFFFFFFFFFFFFFFFFFFFFFFFFCE
:10024000FFFFFFFFFFFFFFFFFFFFFFFFFFFFFFFFBE
:10025000FFFFFFFFFFFFFFFFFFFFFFFFFFFFFFFFAE
:10026000FFFFFFFFFFFFFFFFFFFFFFFFFFFFFFFF9E
:10027000FFFFFFFFFFFFFFFFFFFFFFFFFFFFFFFF8E
:10028000FFFFFFFFFFFFFFFFFFFFFFFFFFFFFFFF7E
:10029000FFFFFFFFFFFFFFFFFFFFFFFFFFFFFFFF6E
:1002A000FFFFFFFFFFFFFFFFFFFFFFFFFFFFFFFF5E
:1002B000FFFFFFFFFFFFFFFFFFFFFFFFFFFFFFFF4E
:1002C000FFFFFFFFFFFFFFFFFFFFFFFFFFFFFFFF3E
:1002D000FFFFFFFFFFFFFFFFFFFFFFFFFFFFFFFF2E
:1002E000FFFFFFFFFFFFFFFFFFFFFFFFFFFFFFFF1E
:1002F000FFFFFFFFFFFFFFFFFFFFFFFFFFFFFFFF0E
:1003000030B40B4D00EB80002C182856087094F97F
:100310000110117094F902201A7094F90320029BC5
:100320001A7094F90420039B1A7030BC704700BF08
:10033000CC23001A70B584B00C4600238DF80F3022
:100340008DF80E308DF80D308DF80C308DF80B30A7
:100350000DF10B03019303AB00930DF10D030DF1B0
:100360000E020DF10F01FFF7CBFF012C26D063B277
:1003700033B1022C44D1244800F06EFC012040E04F
:100380009DF80F109DF80E309DF80D2042F0D00220
:1003900003EB41131D4941F823209DF80C309DF9D2
:1003A0000B20012000FA02F1174C03F5006354F80A
:1003B000232022EA010244F8232022E09DF80F10B6
:1003C0009DF80E309DF80D2042F0D00203EB411352
:1003D0000E4941F823209DF80C409DF90B20012087
:1003E00000FA02F1084B04F5006553F8256031432B
:1003F00043F82510D2B203EB44130021995400E0D6
:10040000002004B070BD00BF00400F4000600840F5
:1004100008B500F033FD02210020FFF78BFF00211B
:100420000846FFF787FF00210120FFF783FF002127
:100430000220FFF77FFF00210320FFF77BFF012150
:100440000420FFF777FF01210520FFF773FF01214B
:100450000620FFF76FFF01210720FFF76BFF012147
:100460000820FFF767FF01210920FFF763FF08BDA0
:1004700010B584B00C4600238DF80F308DF80E3087
:100480008DF80D308DF80C308DF80B300DF10B031D
:10049000019303AB00930DF10D030DF10E020DF16D
:1004A0000F01FFF72DFF9DF80C309DF80B20003455
:1004B00018BF01245B0103F1402303F570239C5412
:1004C00004B010BD00B585B000238DF80F308DF855
:1004D0000E308DF80D308DF80C308DF80B300DF19D
:1004E0000B03019303AB00930DF10D030DF10E020D
:1004F0000DF10F01FFF704FF9DF90C309DF80B2063
:100500005B0103F1402303F57023985C003018BFB2
:10051000012005B05DF804FB10B50446434B1B7881
:10052000032B17D8DFE803F00209104FFFF7CAFFCB
:1005300080B93E4B02221A700CE0FFF7C3FF48B1AE
:100540003A4B03221A7005E0394B1B781BB9384B24
:1005500001221A7010BDFFF7B5FF48BB334B0122D3
:100560001A706CB1012C13D0022C19D0032C22D19B
:1005700001210920FFF77CFF552001F0E1FC1AE082
:1005800011460420FFF774FF462001F0D9FCE9E78B
:1005900001210720FFF76CFF412001F0D1FCE3E7C8
:1005A00001210820FFF764FF432001F0C9FCDDE7CB
:1005B0001E4B00221A701D4B1B78022BCAD01C4BFD
:1005C00000221A70C6E71B4B1B781BB9194B01227E
:1005D0001A70BFE7FFF776FFE8B1144B00221A70DC
:1005E00054B1012C0DD0022C10D0032C16D10021B7
:1005F0000920FFF73DFF11E011460420FFF738FF07
:10060000EFE700210720FFF733FFECE70021082088
:10061000FFF72EFFE9E7054B01221A70034B1B7809
:10062000032B97D0034B00221A7093E7D8000010D9
:10063000A8000010A9000010014B00221A7070479A
:10064000D800001000B587B0FFF7E2FE00F016FCFE
:1006500000F044FA2D4B1B682D4AA2FB03239B0993
:10066000013BB3F1807F09D22A4A53602A4BE02133
:1006700083F82310002393600723136028220023AC
:10068000684601F01DF8FFF7D7FF4FF4E131032072
:1006900000F0CAFF20E00120FFF73EFF1F4B1B7850
:1006A00033B10120FFF738FF1D4801F0CBFCF5E71F
:1006B0000220FFF731FF05E00220FFF72DFF194868
:1006C00001F0C0FC154B1B78002BF5D10320FFF780
:1006D00023FF124B1B7893B9684601F001F80028FC
:1006E000FAD00020FFF718FF0C4B1B78002BD2D05C
:1006F0000020FFF711FF0C4801F0A4FCF4E70320F1
:10070000FFF70AFF094801F09DFCE2E7DC0000105A
:10071000D34D621010E000E000ED00E0D8000010C2
:100720000424001A0824001A0024001A0C24001AB9
:100730007047FFFF10B572B6194B1A4A1A6004339E
:10074000194A1A60002305E0184A4FF0FF3142F8B9
:1007500023100133072BF7D962B6154B07E003F1DD
:100760000C049A6859681868FFF70FFD2346114A70
:100770009342F4D306E01C46596854F8080BFFF77F
:1007800013FD23460C4A9342F5D300F015FF01F008
:10079000FFFAFFF7CDFFFFF755FF30BFFDE700BFC2
:1007A000003105400010DF10FFF7DF0180E200E0BC
:1007B0001401001A5001001A7801001A704770479E
:1007C000092303604FF0FF307047582303604FF058
:1007D000FF307047022904D9092303604FF0FF302E
:1007E000704701207047582303604FF0FF30704777
:1007F00002291FD82DE9F0411D4617460646002460
:10080000AC4211D200F087F9B0F1FF3FF8D004F10B
:10081000010838550D2803D00A2801D04446EFE7D7
:1008200000F079F9404603E0132333604FF0FF30C6
:10083000BDE8F081132303604FF0FF3070470229B9
:100840000CD870B51D4616460024AC4204D2305D6B
:1008500000F05CF90134F8E7284670BD132303600B
:100860004FF0FF307047FFFF054B1B6823B1044B6F
:100870001868014419607047014B024A1A60F6E794
:10088000AC000010F000001000231C2B12D810B494
:10089000094A02EB830112F823404A78488802EBA8
:1008A0004412064941F8220001331C2BF0D95DF8AF
:1008B000044B7047704700BF1424001A00600840C2
:1008C00010B5174AD2F8203123F4704343F4104393
:1008D000C2F82031D2F8243123F4704343F410439A
:1008E000C2F8243101220F49062000F01BFA00242F
:1008F0004CB10B4B5A6822F00C025A605A6842F015
:1009000003025A6010BD084800EB840101238A7875
:10091000497810F8240000F0DDFC0134E8E700BF5E
:100920000030044000CB280C1024001A08B5FFF753
:10093000ABFFFFF7C5FF08BD0022052A19D870B428
:100940000C4911F8125001EB42014C780A4B05F5A5
:10095000006653F826100120A040014343F82610FA
:1009600003EB4513002119550132052AE8D970BC63
:10097000704770479424001A00400F400023032B57
:1009800016D830B40B4911F8132001EB43014D7810
:10099000094C02F5006254F822100120A84021EA17
:1009A000000144F822100133032BEBD930BC70470F
:1009B000704700BF8C24001A00400F400023082B12
:1009C00016D830B40B4911F8132001EB43014D78D0
:1009D000094C02F5006254F822100120A84021EAD7
:1009E000000144F822100133082BEBD930BC7047CA
:1009F000704700BFA024001A00400F4010B582B01D
:100A0000084C6946204600F04DF9074A69462046E1
:100A100000F068F900226946204600F07CF902B037
:100A200010BD00BF00300E40801A060010B50B4C00
:100A3000204600F0B7F8636823F00403636023687E
:100A400023F0FF0343F0070323600549204600F02D
:100A50008AF8636843F00203636010BD00500C40E5
:100A6000A086010008B5002000F0C8F8044B40F64D
:100A70000802C3F8842C0349002000F0D1F808BD17
:100A80000060084040420F0010B5074C204600F0BF
:100A9000DBFC4FF4E131204600F020FD0323E3604E
:100AA0000123E36510BD00BF00100C40034B5B69E0
:100AB00013F0200FFAD0014B1860704700100C4063
:100AC000054B5B6913F0010F03D0034B1868C0B2EC
:100AD00070474FF0FF30704700100C4008B5FFF72B
:100AE000D3FF094800F0B8F8FFF768FFFFF786FF6B
:100AF000FFF79CFFFFF7B6FFFFF71EFFFFF73EFF74
:100B000000F0BCF908BD00BF00400F4008B5C0B2FE
:100B1000FFF7CCFF08BD08B5FFF7D2FF08BD08B549
:100B2000FFF7B2FF08BDFFFF034B984201D08320BF
:100B30007047A520704700BF00500C40044B9842FE
:100B400002D040F2022070474FF4F170704700BFAE
:100B500000500C40036823F47F43090289B2194313
:100B600001600261704770B506460D46FFF7E6FF6B
:100B700000F02EFC02224FF0FF33002100E021465E
:100B8000AB420BD94C1C02FB04F3B0FBF3F39D42C8
:100B9000F6D2FF2CF3D902320021F1E73046FFF7FD
:100BA000D9FF70BD10B50446FFF7BEFF00F0F6FB9D
:100BB0002046FFF7C3FF00F0F1FB636823F0040356
:100BC0006360236823F0FF0343F0070323600249B7
:100BD0002046FFF7C8FF10BDA0860100012909D1FA
:100BE000C0EBC0008200044B13441A69137DDBB2D2
:100BF000042BFBD0704700BF0000001070B5054605
:100C0000064EC400221A93003344988800F0C6FBB5
:100C1000641BA300F3586C229A6170BD00000010A1
:100C20002DE9F0410C460B4EC5002B1A4FEA830804
:100C300006EB0803988800F0CBFBB0FBF4F056F805
:100C4000083042081A6156F808301A69801A58614B
:100C5000BDE8F081000000107047FFFF034B984291
:100C600001D0032070470420704700BF00400E40B1
:100C700070B50D4614461E46FFF7F0FF00F0A8FBC6
:100C800055B104FB06F404EB40006400B0FBF4F043
:100C9000C0B20138C0B270BD04EB840304EB43045E
:100CA000F1E7FFFF38B505460C46FFF7D7FF0123F4
:100CB0001A46194600F054FB0021E960084A2260F8
:100CC000217161710B232846FFF7D2FF000240F427
:100CD00000132079400400F460201843286038BDD8
:100CE000801A060070B505460E46046824F46F2489
:100CF00024F470640A600B79C3F10B03DBB2497909
:100D0000FFF7B6FF44EA002033795B0403F4602365
:100D100003432B6070BD08B50A710A68FFF7E2FF54
:100D200008BDFFFF70B58AB005460E4614464CF26A
:100D300050330993062818D00023012229460420A5
:100D400000F0C8FA4A4A536C43F0010353648DF82B
:100D5000085001A9304600F035FA464B9E4216D99C
:100D6000019B13F0400F03D0FEE700F08DF9E3E79D
:100D700013F0800F05D023F0800301930025012696
:100D800007E0049B013304930125002601E00025C0
:100D90002E469DF80820019B43EA0263059A43EA28
:100DA0000243039A43EA0233049A43EA022343F4D8
:100DB00000632F4A53642E4B1B6C13F0010FFAD0C3
:100DC000002301220921042000F084FA06B34CF22A
:100DD00050330993099B5A1E0992002BFAD1019BAB
:100DE00043F0800301939DF8082043EA0263059ACB
:100DF00043EA0243039A43EA0233049A43EA022392
:100E000043F400631A4A5364002C2ED10AB070BD1B
:100E1000002DF9D04CF250330993099B5A1E0992C8
:100E2000002BFAD1049B5A1E04929DF80810019BD6
:100E300043EA0163059943EA0143039943EA013315
:100E400043EA022343F40063094A5364DCE70A4897
:100E500000EB8401CB788A78497810F8240000F000
:100E600039FA0134112CF2D9D0E70024FAE700BF97
:100E70000000054080778E06B824001A08B5692066
:100E800000F0A6FA014B186008BD00BFDC0000109E
:100E9000F0B40B6813F0800F02D023F040030B6016
:100EA000074601253AE04B6903FB02F3B3FBF5F378
:100EB0001CE01C46B0EB040C27D4674506D98D60B6
:100EC000771CCF600A618C61CB6167460132B2F555
:100ED000807F1DDC0C6814F0400FE4D0731C02FA14
:100EE00003FC4B6903FB0CF3B3FBF5F3DFF838C0ED
:100EF0006345EBD9DFF834C0634509D814F0800F9F
:100F0000D7D1741C23FA04F4D4E7CCF1000CD4E755
:100F10000136032E01DC0122D9E70135042D01DC65
:100F20000026F6E7F0BC7047FF5E4C0900D01213B4
:100F3000F0B599B005460C465C22002101A800F0EE
:100F40004EFF802300936369059323798DF8043065
:100F500069462846FFF79CFF069BAB4227D0EB1A59
:100F60002ED41E46109B23F0400310936369159303
:100F700023798DF8443010A92846FFF789FF169B86
:100F8000AB421FD0EB1A25D41F462B4B9D4223D9D1
:100F90000E9BED1A33D4AE423BDCBE4231DC6D46D3
:100FA0000FCD0FC495E80F0084E80F0006E06D46F2
:100FB0000FCD0FC495E80F0084E80F0019B0F0BD05
:100FC0005B42CEE710AD0FCD0FC495E80F0084E86B
:100FD0000F00F3E75B42D7E74023089363690D9363
:100FE00008A92846FFF754FF0E9BAB42D0D108ADAD
:100FF0000FCD0FC495E80F0084E80F00DEE76D42C7
:10100000C9E710AD0FCD0FC495E80F0084E80F00BD
:10101000D4E7AF4207DB08AD0FCD0FC495E80F0052
:1010200084E80F00CAE710AD0FCD0FC495E80F009C
:1010300084E80F00C2E700BF80778E0630B4054613
:1010400000231C2000E001331C2818D103EB4302CD
:1010500051000C4A0A441479844210D003EB430136
:101060004A0008498A5AAA42EDD803EB43025100CC
:10107000044A0A445288AA42E5D32046E4E730BC39
:10108000704700BF0C25001A82B04FF47A730193A9
:101090000D4A936923F0020192698A4201D00A4AFB
:1010A000916123F00303094A1168094A914201D969
:1010B00043F00403044A9361019B5A1E0192002BE2
:1010C000FAD102B0704700BF00000540B424001AF6
:1010D000FF2C31011230054B53F8200010F0010FA6
:1010E00002D1C0F304607047112070470000054032
:1010F00000F11202034B53F82220034B185C00EA64
:1011000092007047000005400425001A08B5102819
:101110000AD8DFE800F0440B0D18210924272A2DF6
:1011200009093034383C400000203AE01E4838E0DD
:101130001E4BD3F82C3103F00703042B01D01C48BD
:101140002FE000202DE0194BD3F82C3103F00703DA
:10115000042B27D0164824E0164B186821E0164BC4
:1011600018681EE0154B18681BE0144B586818E00F
:1011700000F068F815E0002100F09AF811E0012174
:1011800000F096F80DE0022100F092F809E003214A
:1011900000F08EF805E0042100F08AF801E04FF439
:1011A000004008BD0648FCE7001BB70000300440C3
:1011B00040787D018824001AB424001AB000001081
:1011C00080F0FA0238B505460C460879FFF79EFF15
:1011D0006061194B2B44194A934221D818B38023DC
:1011E00023600023A360E360B5FBF0F32361144A9E
:1011F000954203D903FB00F0A84207D021462846B8
:10120000FFF796FEA3688BB1013BA360236983B10E
:10121000E2680AB1013AE260013B2361002038BD77
:101220004FF0FF30FBE74FF0FF30F8E74FF0FF30B3
:10123000F5E74FF0FF30F2E7103A6BFF1005940B23
:10124000FF5E4C0930B583B0174D6C6CC4F303607E
:10125000FFF75CFF154B1B6801932B6C13F0010F1C
:1012600020D0C4F30743C4F30132C4F30121C4F313
:101270008015013301320DF1080C614411F8041C92
:1012800014F0800F08D13DB94900B3FBF1F3B0FB76
:10129000F2F000FB03F003E0B0FBF2F003FB00F020
:1012A00003B030BD0020FBE7000005400025001A18
:1012B00038B50C460846FFF70DFF05462046FFF7F8
:1012C00017FF04462846FFF721FF0134B0FBF4F076
:1012D00038BDFFFF30B400F11604A40004F18044CF
:1012E00004F5A02464681B2813D811291AD00E4DC8
:1012F00025400AB145F400650BB145F0010545EA0A
:1013000001651630800000F1804000F5A0204560A6
:1013100008E044F001041630800000F1804000F540
:10132000A020446030BC7047FEF7FFE01B280CD8BB
:101330001630800000F1804000F5A020406810F0D9
:10134000010F04D1C0F304607047112070471120D1
:10135000704708B5FFF7EAFFFFF7D8FE08BDFFFFAB
:1013600071B901210AB141F00401022B0AD0B0F594
:10137000A17F0AD3A0F59170064B43F83010704757
:101380000321EFE741F02001F1E72030024B43F861
:10139000301070470020054000100540B0F5A17FD7
:1013A00009D3094AA0F5917052F8303043F0010397
:1013B00042F830307047054A203052F8303043F060
:1013C000010342F83030704700200540001005400E
:1013D00010B5B0F5A17F09D3A0F591730D4A52F86D
:1013E000334014F0010F07D1002010BD00F120039D
:1013F000094A52F83340F4E7FFF720FEFFF7A9FF50
:1014000014F0E00F03D10123B0FBF3F0EDE702236A
:10141000FAE700BF0020054000100540094B984244
:1014200009D003F58053984207D0A3F58023984252
:1014300005D000207047022070470320704701202C
:10144000704700BF00100C4030B583B00446FFF772
:10145000E5FF01231A4619460E4D35F81000FFF737
:101460007FFF0723A3600023E3656360E3602362DB
:10147000E36463652365084B9C4206D00323E36065
:101480001023A362019B03B030BD00232361A36935
:101490000193F3E78025001A0020084038B505467F
:1014A0000C46FFF7BBFF0C4B33F81000FFF790FF23
:1014B0002301B0FBF3F3D9B2EA6842F08002EA609C
:1014C0002960C3F307226A60EA6822F08002EA60BA
:1014D000B0FBF3F0000938BD7825001A2DE9F04F74
:1014E00083B001908846FFF799FF324B33F8100024
:1014F000FFF76EFF06464FF0FF3701244FF0000B59
:10150000A246D9462AE042424B1C17E00AB31746CE
:10151000AB46A24699460135AC421ED93309300785
:10152000A4FB000104FB0311621908FB02F2002373
:1015300000F0F6F802460B460028E4DB9742EAD3B7
:10154000002BE8D0190CE6D1022BDFD8002DDDD01E
:10155000E1E71746AB46A246994601341FB10F2C6E
:1015600001D80025D8E7B9F1000F1ED0019A114625
:10157000D36843F08003D3605FFA89F31360C9F343
:1015800007235360D36823F08003D3604FEA0A1324
:10159000DBB20BF00F0213438B6233090AFB03F338
:1015A000DA4409FB0AF9B3FBF9F9484603B0BDE890
:1015B000F08F00BF7825001A08B50B4A0B4B9A60D4
:1015C00003F50C731B6903F47F63202B04D0FFF732
:1015D000ADF9FFF783FA08BD044AD2F8883043F426
:1015E0007003C2F88830F2E70000001A00ED00E056
:1015F000014BD3E900017047C000001008B5074A4D
:1016000013685168013341F1000113605160044BCC
:101610001B6813B1034A1068984708BDC00000104A
:10162000C8000010B80000102DE9F8438046894634
:10163000194C45002A189300E618E7583846FFF77A
:1016400003FF49463846FFF729FF0723BB603B6885
:101650000123FB6530797379B27942F018020F49A2
:1016600003EB401341F82320F079337A727A42F089
:10167000D00203EB401341F82320B8F1010F01D051
:10168000BDE8F883064AD36C43F03003D3641A22D2
:10169000C1F80823F4E700BF8825001A006008405D
:1016A0000010084008B5044B1B681B68DB68034A40
:1016B0001068984708BD00BFE0000010CC00001083
:1016C00010B5044610461946044BD3E9002300F038
:1016D00027F8C4E902010023237410BD380000106C
:1016E000F8B50446057C3DB9FFF782FFC4E9000167
:1016F000012323742846F8BDFFF77AFF2368626848
:10170000C61A61EB0207D4E902239F4208BF964242
:1017100003D3002323740125ECE70025EAE7FFFF4C
:1017200053B94AB9002908BF00281CBF4FF0FF3148
:101730004FF0FF3000F074B9ADF1080C6DE904CE44
:1017400000F006F8DDF804E0DDE9022304B070479C
:101750002DE9F047089E04468846002B40F085801E
:101760008A42154648D9B2FA82F24AB1C2F120073C
:1017700001FA02F320FA07F7954047EA030894407C
:101780004FEA154E230CB8FBFEF71FFA85FC0EFB43
:10179000178843EA084307FB0CF1994209D9EB1873
:1017A00007F1FF3080F0E380994240F2E080023F91
:1017B0002B445B1AA4B2B3FBFEF00EFB103344EAD9
:1017C000034400FB0CFCA44509D92C1900F1FF339C
:1017D00080F0CB80A44540F2C88002382C4440EA17
:1017E0000740A4EB0C0400271EB1D4400023C6E937
:1017F00000433946BDE8F087002A53D0B2FA82F29E
:10180000002A40F0B680491B4FEA154E1FFA85F8B2
:101810000127B1FBFEFC230C0EFB1C1143EA014324
:1018200008FB0CF1994207D9EB180CF1FF3002D2FA
:10183000994200F2EC808446591AA3B2B1FBFEF043
:101840000EFB101443EA044408FB00F8A04507D936
:101850002C1900F1FF3302D2A04500F2DC801846BB
:10186000A4EB080440EA0C40BEE78B4208D9002EE6
:1018700078D00027C6E9000138463946BDE8F08730
:10188000B3FA83F77FB98B4202D3824200F2BD8064
:10189000841A61EB030301209846002EA9D0C6E903
:1018A0000048A6E7FFDEC7F12005BB4022FA05FC91
:1018B0004CEA030C01FA07F420FA05F821FA05F3C3
:1018C0004FEA1C4E48EA0404B3FBFEF9210C0EFB60
:1018D00019331FFA8CF841EA034309FB08FA9A45C9
:1018E00002FA07F200FA07F10BD91CEB030309F126
:1018F000FF3080F088809A4540F28580A9F1020986
:101900006344A3EB0A03A4B2B3FBFEF00EFB103357
:1019100044EA034400FB08F8A04508D91CEB040482
:1019200000F1FF336BD2A04569D90238644440EA24
:101930000940A4EB0804A0FB02894C45C6464B466F
:1019400054D351D0002E69D0B1EB0E0264EB0304E6
:1019500004FA05F522FA07F3FC401D43C6E90054DA
:10196000002746E73746304643E7184637E707463D
:101970001FE7C2F1200320FA03F7954001FA02F0B5
:1019800021FA03F34FEA154E3843010CB3FBFEF77F
:101990001FFA85F80EFB173341EA034107FB08F3F2
:1019A0008B4204FA02F407D9691807F1FF3C28D2E8
:1019B0008B4226D9023F2944CB1A81B2B3FBFEF0F9
:1019C0000EFB103341EA034100FB08F38B4207D9B9
:1019D000691800F1FF3C10D28B420ED9023829441D
:1019E000C91A40EA074714E74145ABD2B8EB020EEB
:1019F00069EB0C0201381346A4E76046F0E718468D
:101A000095E76746D8E781467BE7384645E7ACF17E
:101A1000020C2B4410E702382C4421E73746E8E655
:101A2000704700BF8A892DE9F041054610070C4632
:101A300058D44B68002B05DC0B6C002B02DC00201B
:101A4000BDE8F081E66A002EF9D0002312F480523E
:101A50002F682B6032D0606DA3895A0705D5636863
:101A6000C01A636B0BB1236CC01A00230246E66AEE
:101A7000216A2846B047431CA38906D129681D293D
:101A800049D82A4ACA40D60745D500226260D904FF
:101A90002269226004D5421C01D12B6803B960651C
:101AA000616B2F600029CAD004F14403994202D02F
:101AB000284600F09DF900206063C1E7216A0123F8
:101AC0002846B047411CC7D12B68002BC4D01D2B22
:101AD00001D0162B01D12F60B1E7A38943F0400359
:101AE000A381ADE70F69002FA9D093070E6808BF47
:101AF0004B690F6018BF0023A6EB07088B60B8F195
:101B0000000F9CDD43463A46216AA66A2846B04744
:101B1000002806DCA38943F04003A3814FF0FF3087
:101B20008EE70744A8EB0008E9E700BF010040206A
:101B300038B50B6905460C4613B90025284638BD53
:101B400018B183690BB900F087F8144B9C421BD184
:101B50006C68B4F90C30002BEFD0626ED00704D45F
:101B6000990502D4A06D00F038F928462146FFF708
:101B700059FF636EDA070546E0D4A3899B05DDD4DF
:101B8000A06D00F02BF9D9E7054B9C4201D1AC6860
:101B9000DFE7044B9C4208BFEC68DAE7F025001A47
:101BA0001026001AD025001A002310B50446C0E9FB
:101BB0000033836081814366C281C0E9043383615D
:101BC000194608225C3000F00AF9054B6362054BA8
:101BD000A362054BE362054B2462236310BD00BF83
:101BE0005520001A7720001AAF20001AD320001ABF
:101BF000014900F0AFB800BF311B001A70B54A1E92
:101C0000682555430E4605F1740100F03FF904467E
:101C100040B10021C0E900160C30A06005F1680257
:101C200000F0DDF8204670BD014800F0D6B800BFD6
:101C3000EC000010014800F0D1B800BFEC0000102B
:101C4000014800F0CAB800BFE7000010014800F0EA
:101C5000C5B800BFE700001010B50446FFF7F0FF5D
:101C6000A3691BB1BDE81040FFF7F0BFC4E9123310
:101C70002365134B134A1B68A262A34204BF0123CE
:101C8000A361204600F020F86060204600F01CF8B8
:101C9000A060204600F018F80022E060042160688F
:101CA000FFF782FF01220921A068FFF77DFF0222D2
:101CB0001221E068FFF778FF0123A361D2E700BF9C
:101CC0003026001AF11B001AF8B50746FFF7ACFFE3
:101CD0001E4B1E68B36913B93046FFF7BDFF483687
:101CE000D6E90134013B03D533680BB33668F7E717
:101CF000B4F90C50D5B9164BE36004F15800656691
:101D000000F06AF8FFF796FF2560C4E90155C4E9C1
:101D10000455A5610822294604F15C0000F05FF833
:101D2000C4E90D55C4E912552046F8BD6834D9E719
:101D300004213846FFF762FF044630600028D5D101
:101D4000FFF778FF0C233B60EEE700BF3026001A58
:101D50000100FFFF2DE9F8438046894600F1480461
:101D6000002614B93046BDE8F883D4E90175013F77
:101D700001D52468F5E7AB89012B07D9B5F90E30F9
:101D8000013303D029464046C84706436835EEE78D
:101D900070B50D4D0D4C641BA4100026A64209D150
:101DA0000B4D0C4CFEF70BFD641BA4100026A64245
:101DB00005D170BD55F8043B98470136EEE755F85C
:101DC000043B98470136F2E73426001A3426001AFD
:101DD0003426001A3826001A7047704770470244AC
:101DE0000346934200D1704703F8011BF9E7FFFF58
:101DF00038B50546002945D051F8043C0C1F002B8E
:101E0000B8BFE41800F08EFA1F4A1368104633B9C1
:101E1000636014602846BDE8384000F089BAA342E8
:101E20000CD921686218934204BF1A685B6863602A
:101E300004BF521822600460ECE713465A680AB1E6
:101E4000A242FAD919685818A0420BD1206801445F
:101E5000581882421960DDD1106852685A600144F6
:101E60001960D7E702D90C232B60D3E7206821182B
:101E70008A4204BF11685268626004BF0918216079
:101E80005C60C7E738BD00BFD0000010F8B5CD1CBE
:101E900025F0030508350C2D38BF0C25002D06460E
:101EA00001DBA94203D90C2333600020F8BD00F008
:101EB00039FA21490A6814469CB9204F3B6823B976
:101EC00021463046FEF7D0FC386029463046FEF702
:101ED000CBFC431C23D10C233360304600F028FA9E
:101EE000E3E723685B1B17D40B2B03D923601C4447
:101EF000256004E06368A2420CBF0B60536030466B
:101F000000F016FA04F10B00231D20F00700C21A9E
:101F1000CCD01B1AA350C9E722466468CCE7C41C86
:101F200024F00304A042E3D0211A3046FEF79CFCC3
:101F30000130DDD1CFE700BFD0000010D400001089
:101F400038B5084B1C68054624B1A36913B920466F
:101F5000FFF782FEA26829462046BDE8384000F01F
:101F6000EDB900BF4000001070B50E46054618B12F
:101F700083690BB9FFF770FEAB69AC6813B92846EB
:101F8000FFF76AFE2C4B9C4220D16C68636EDB0726
:101F900005D4A389980502D4A06DFFF71EFFA3897D
:101FA00019071DD52369DBB1013EA36816F8011F8F
:101FB000013BA36039BB002B38DA22460A212846B0
:101FC00000F08CF8013011D00A2511E01B4B9C4227
:101FD00001D1AC68DAE71A4B9C4208BFEC68D5E740
:101FE0002146284600F0CCF80028DDD04FF0FF3520
:101FF000636EDA0705D4A3899B0502D4A06DFFF7B1
:10200000EDFE284670BD002B04DAA2699A4206DC78
:102010000A2904D023685A1C22601970C5E7224699
:10202000284600F05BF80130BFD1DFE723680A25BE
:102030005A1C22601D70DBE7F025001A1026001ADA
:10204000D025001A024B01461868FFF78DBF00BF6C
:102050004000001010B50C46B1F90E10FEF7C8FB99
:102060000028ABBF636DA3891B1823F48053ACBF5A
:102070006365A38110BD2DE9F0411F468B89DB0507
:1020800005460C46164605D502230022B1F90E106E
:10209000FEF7A9FBA389B4F90E1023F48053A381A2
:1020A00032463B462846BDE8F041FEF7C8BB10B5B6
:1020B0000C46B1F90E10FEF796FB431CA38915BF21
:1020C000606523F4805343F48053A38118BFA38138
:1020D00010BDB1F90E10FEF773BBFFFFF8B50E4649
:1020E0001446054618B183690BB9FFF7B5FD214BBE
:1020F0009C422BD16C68A369A360A3891A072FD5D2
:1021000023696BB323692068C01A6369F6B28342FE
:10211000374604DC21462846FFF70AFD30BBA3689A
:10212000013BA36023685A1C22601E706369013062
:10213000834204D0A389DB0706D50A2E04D12146A9
:102140002846FFF7F5FC88B93846F8BD0A4B9C4293
:1021500001D1AC68CFE7094B9C4208BFEC68CAE7E5
:102160002146284600F00CF80028CBD04FF0FF376E
:10217000EAE700BFF025001A1026001AD025001A41
:10218000324B70B51D6806460C4625B1AB6913B9D4
:102190002846FFF761FD2E4B9C420FD16C68B4F9C5
:1021A0000C309AB215072CD4D00611D40922326013
:1021B00043F04003A3814FF0FF303EE0254B9C42AB
:1021C00001D1AC68EBE7244B9C4208BFEC68E6E722
:1021D000510712D5616B41B104F14403994202D019
:1021E0003046FFF705FE00236363A38923F0240331
:1021F000A3810023636023692360A38943F008035C
:10220000A38123694BB9A38903F42073B3F5007F3D
:1022100003D02146304600F045F8A28912F00103B0
:102220000CD00023A36063695B42A361236953B9A7
:10223000B4F90C3013F08000BAD170BD920758BFCA
:102240006369A360F2E70020F7E700BF40000010D9
:10225000F025001A1026001AD025001A70B50E4677
:10226000B1F90E10002996B014461D4607DA002376
:102270002B60B3891A0610D44FF480630EE06A46CF
:10228000FEF7A3FA0028F2DB019A02F47042A2F5ED
:1022900000535A425A412A60EEE74023002023604F
:1022A00016B070BD8B8973B59D0706460C4607D5E1
:1022B00004F14703236023610123636102B070BD11
:1022C00001AB6A46FFF7CAFF009905463046FFF7A3
:1022D000DDFD48B9B4F90C309A05EFD423F00303BF
:1022E00043F00203A381E3E70D4BB362A3892060AF
:1022F00043F08003A381009B6361019B20615BB17C
:10230000B4F90E103046FEF765FA28B1A38923F020
:10231000030343F00103A381A3891D43A581CDE7F6
:10232000F11B001A0148FFF758BD00BFE80000107C
:102330000148FFF753BD00BFE800001070B50D461F
:102340001446064618B183690BB9FFF785FC1C4B90
:102350009C4224D17468636ED80705D4A38999057B
:1023600002D4A06DFFF739FDA368013B002BA360E9
:1023700005DAA26993421CDBEBB20A2B19D0236861
:102380005A1C22601D70EDB2636EDA0705D4A38972
:102390009B0502D4A06DFFF721FD284670BD094BB7
:1023A0009C4201D1B468D6E7074B9C4208BFF46851
:1023B000D1E7294622463046FFF790FE0546E3E77F
:1023C000F025001A1026001AD025001A010000007E
:1023D00004010100000801020000090106000109D2
:1023E00002000405000201040501020204050202C4
:1023F0000A00000E020B00010B020C00010CFFFF93
:10240000460D0000410D0000430D0000550D00FF7A
:10241000010F0101020044000201440002024400D5
:10242000020A4000020B4000020C40000100500074
:102430000101500001025000010650000601500049
:102440000604500006055000060754000608540014
:1024500006095000060A5000060B5000060C5000FA
:102460000F04F0000103D5000104D5000701160098
:1024700007025600020352000204520009055200EE
:10248000090657000602570000000000000400087B
:1024900000090109050005010502000E010B010CF0
:1024A000030003030304050F0510030503060307D8
:1024B0000208FFFF001BB70000010100090901002D
:1024C0000A090100010701010209010006090100D2
:1024D0000C0901010D0901000E0901000F0901009D
:1024E000100901001109010012090100130901007E
:1024F00014110100191101001A1101001B11010032
:1025000001020408030F0F0FFF0000000000050088
:102510000A0020002400090040004000050060007F
:10252000A6000400C000C3000200E000E0000100BB
:1025300000010001030020012001060040014001CC
:102540000C00420142011900620162011300820184
:1025500082011200A201A2011100C201C2011000F9
:10256000E201E2010F00020202020E002202220238
:102570000D00230223021C00C201A201820162019C
:1025800081008200A100A20000100840060402069B
:102590000502180000100840090507090607180081
:1025A00000200840000000000000190000100C404E
:1025B0000701060702061A0000100C40010F010176
:1025C00010011A0000200C400203020204021B004A
:1025D00000000000000000000000000000000000FB
:1025E00000000000000000000000000000000000EB
:1025F00000000000000000000000000000000000DB
:1026000000000000000000000000000000000000CA
:1026100000000000000000000000000000000000BA
:1026200000000000000000000000000000000000AA
:042630004400001052
:042634001F0B001A5E
:0826380018F1FF7F0100000012
:1026400000100A4022000000DD0B001A000000000C
:1026500000000000000000000000000000000E402C
:1026600001000000DD0B001A000000000000000067
:102670000000000000000000010000000000000059
:102680004400001000000000F025001A1026001A77
:10269000D025001A0000000000000000000000002B
:1026A000000000000000000000000000000000002A
:1026B000000000000000000000000000000000001A
:1026C000000000000000000000000000000000000A
:1026D00000000000000000000000000000000000FA
:0426E00000000000F6
:040000051A000735A1
:00000001FF
